{"abi":[{"type":"constructor","inputs":[],"stateMutability":"nonpayable"},{"type":"function","name":"approve","inputs":[{"name":"to","type":"address","internalType":"address"},{"name":"tokenId","type":"uint256","internalType":"uint256"}],"outputs":[],"stateMutability":"nonpayable"},{"type":"function","name":"balanceOf","inputs":[{"name":"owner","type":"address","internalType":"address"}],"outputs":[{"name":"","type":"uint256","internalType":"uint256"}],"stateMutability":"view"},{"type":"function","name":"burn","inputs":[{"name":"tokenId","type":"uint256","internalType":"uint256"}],"outputs":[],"stateMutability":"nonpayable"},{"type":"function","name":"burnAuth","inputs":[{"name":"tokenId","type":"uint256","internalType":"uint256"}],"outputs":[{"name":"","type":"uint8","internalType":"enum IERC5484.BurnAuth"}],"stateMutability":"view"},{"type":"function","name":"exists","inputs":[{"name":"tokenId","type":"uint256","internalType":"uint256"}],"outputs":[{"name":"","type":"bool","internalType":"bool"}],"stateMutability":"view"},{"type":"function","name":"getApproved","inputs":[{"name":"tokenId","type":"uint256","internalType":"uint256"}],"outputs":[{"name":"","type":"address","internalType":"address"}],"stateMutability":"view"},{"type":"function","name":"getKYCDetailByAddress","inputs":[{"name":"account","type":"address","internalType":"address"}],"outputs":[{"name":"","type":"tuple","internalType":"struct juanaContract.KYCDetails","components":[{"name":"burnAuth","type":"uint8","internalType":"enum IERC5484.BurnAuth"},{"name":"kycHash","type":"bytes32","internalType":"bytes32"},{"name":"kycTimestamp","type":"uint256","internalType":"uint256"},{"name":"isVerified","type":"bool","internalType":"bool"}]}],"stateMutability":"view"},{"type":"function","name":"hasValidKYC","inputs":[{"name":"account","type":"address","internalType":"address"}],"outputs":[{"name":"","type":"bool","internalType":"bool"}],"stateMutability":"view"},{"type":"function","name":"isApprovedForAll","inputs":[{"name":"owner","type":"address","internalType":"address"},{"name":"operator","type":"address","internalType":"address"}],"outputs":[{"name":"","type":"bool","internalType":"bool"}],"stateMutability":"view"},{"type":"function","name":"isTokenValid","inputs":[{"name":"tokenId","type":"uint256","internalType":"uint256"}],"outputs":[{"name":"","type":"bool","internalType":"bool"}],"stateMutability":"view"},{"type":"function","name":"mintKYC","inputs":[{"name":"to","type":"address","internalType":"address"},{"name":"tokenId","type":"uint256","internalType":"uint256"},{"name":"burnAuthorization","type":"uint8","internalType":"enum IERC5484.BurnAuth"},{"name":"kycHash","type":"bytes32","internalType":"bytes32"},{"name":"isVerified","type":"bool","internalType":"bool"}],"outputs":[],"stateMutability":"nonpayable"},{"type":"function","name":"name","inputs":[],"outputs":[{"name":"","type":"string","internalType":"string"}],"stateMutability":"view"},{"type":"function","name":"owner","inputs":[],"outputs":[{"name":"","type":"address","internalType":"address"}],"stateMutability":"view"},{"type":"function","name":"ownerOf","inputs":[{"name":"tokenId","type":"uint256","internalType":"uint256"}],"outputs":[{"name":"","type":"address","internalType":"address"}],"stateMutability":"view"},{"type":"function","name":"renounceOwnership","inputs":[],"outputs":[],"stateMutability":"nonpayable"},{"type":"function","name":"safeTransferFrom","inputs":[{"name":"from","type":"address","internalType":"address"},{"name":"to","type":"address","internalType":"address"},{"name":"tokenId","type":"uint256","internalType":"uint256"}],"outputs":[],"stateMutability":"nonpayable"},{"type":"function","name":"safeTransferFrom","inputs":[{"name":"from","type":"address","internalType":"address"},{"name":"to","type":"address","internalType":"address"},{"name":"tokenId","type":"uint256","internalType":"uint256"},{"name":"data","type":"bytes","internalType":"bytes"}],"outputs":[],"stateMutability":"nonpayable"},{"type":"function","name":"setApprovalForAll","inputs":[{"name":"operator","type":"address","internalType":"address"},{"name":"approved","type":"bool","internalType":"bool"}],"outputs":[],"stateMutability":"nonpayable"},{"type":"function","name":"supportsInterface","inputs":[{"name":"interfaceId","type":"bytes4","internalType":"bytes4"}],"outputs":[{"name":"","type":"bool","internalType":"bool"}],"stateMutability":"view"},{"type":"function","name":"symbol","inputs":[],"outputs":[{"name":"","type":"string","internalType":"string"}],"stateMutability":"view"},{"type":"function","name":"tokenByIndex","inputs":[{"name":"index","type":"uint256","internalType":"uint256"}],"outputs":[{"name":"","type":"uint256","internalType":"uint256"}],"stateMutability":"view"},{"type":"function","name":"tokenOfOwnerByIndex","inputs":[{"name":"owner","type":"address","internalType":"address"},{"name":"index","type":"uint256","internalType":"uint256"}],"outputs":[{"name":"","type":"uint256","internalType":"uint256"}],"stateMutability":"view"},{"type":"function","name":"tokenURI","inputs":[{"name":"tokenId","type":"uint256","internalType":"uint256"}],"outputs":[{"name":"","type":"string","internalType":"string"}],"stateMutability":"view"},{"type":"function","name":"totalSupply","inputs":[],"outputs":[{"name":"","type":"uint256","internalType":"uint256"}],"stateMutability":"view"},{"type":"function","name":"transferFrom","inputs":[{"name":"from","type":"address","internalType":"address"},{"name":"to","type":"address","internalType":"address"},{"name":"tokenId","type":"uint256","internalType":"uint256"}],"outputs":[],"stateMutability":"nonpayable"},{"type":"function","name":"transferOwnership","inputs":[{"name":"newOwner","type":"address","internalType":"address"}],"outputs":[],"stateMutability":"nonpayable"},{"type":"event","name":"Approval","inputs":[{"name":"owner","type":"address","indexed":true,"internalType":"address"},{"name":"approved","type":"address","indexed":true,"internalType":"address"},{"name":"tokenId","type":"uint256","indexed":true,"internalType":"uint256"}],"anonymous":false},{"type":"event","name":"ApprovalForAll","inputs":[{"name":"owner","type":"address","indexed":true,"internalType":"address"},{"name":"operator","type":"address","indexed":true,"internalType":"address"},{"name":"approved","type":"bool","indexed":false,"internalType":"bool"}],"anonymous":false},{"type":"event","name":"Issued","inputs":[{"name":"from","type":"address","indexed":true,"internalType":"address"},{"name":"to","type":"address","indexed":true,"internalType":"address"},{"name":"tokenId","type":"uint256","indexed":true,"internalType":"uint256"},{"name":"burnAuth","type":"uint8","indexed":false,"internalType":"enum IERC5484.BurnAuth"}],"anonymous":false},{"type":"event","name":"OwnershipTransferred","inputs":[{"name":"previousOwner","type":"address","indexed":true,"internalType":"address"},{"name":"newOwner","type":"address","indexed":true,"internalType":"address"}],"anonymous":false},{"type":"event","name":"Transfer","inputs":[{"name":"from","type":"address","indexed":true,"internalType":"address"},{"name":"to","type":"address","indexed":true,"internalType":"address"},{"name":"tokenId","type":"uint256","indexed":true,"internalType":"uint256"}],"anonymous":false},{"type":"error","name":"ERC721EnumerableForbiddenBatchMint","inputs":[]},{"type":"error","name":"ERC721IncorrectOwner","inputs":[{"name":"sender","type":"address","internalType":"address"},{"name":"tokenId","type":"uint256","internalType":"uint256"},{"name":"owner","type":"address","internalType":"address"}]},{"type":"error","name":"ERC721InsufficientApproval","inputs":[{"name":"operator","type":"address","internalType":"address"},{"name":"tokenId","type":"uint256","internalType":"uint256"}]},{"type":"error","name":"ERC721InvalidApprover","inputs":[{"name":"approver","type":"address","internalType":"address"}]},{"type":"error","name":"ERC721InvalidOperator","inputs":[{"name":"operator","type":"address","internalType":"address"}]},{"type":"error","name":"ERC721InvalidOwner","inputs":[{"name":"owner","type":"address","internalType":"address"}]},{"type":"error","name":"ERC721InvalidReceiver","inputs":[{"name":"receiver","type":"address","internalType":"address"}]},{"type":"error","name":"ERC721InvalidSender","inputs":[{"name":"sender","type":"address","internalType":"address"}]},{"type":"error","name":"ERC721NonexistentToken","inputs":[{"name":"tokenId","type":"uint256","internalType":"uint256"}]},{"type":"error","name":"ERC721OutOfBoundsIndex","inputs":[{"name":"owner","type":"address","internalType":"address"},{"name":"index","type":"uint256","internalType":"uint256"}]},{"type":"error","name":"OwnableInvalidOwner","inputs":[{"name":"owner","type":"address","internalType":"address"}]},{"type":"error","name":"OwnableUnauthorizedAccount","inputs":[{"name":"account","type":"address","internalType":"address"}]}],"bytecode":{"object":"0x608060405234801561001057600080fd5b50336040518060400160405280600b81526020016a129d585b9852d650dcd89d60aa1b815250604051806040016040528060048152602001631a94d09560e21b815250816000908161006291906101a0565b50600161006f82826101a0565b5050506001600160a01b0381166100a057604051631e4fbdf760e01b81526000600482015260240160405180910390fd5b6100a9816100af565b5061025e565b600a80546001600160a01b038381166001600160a01b0319831681179093556040519116919082907f8be0079c531659141344cd1fd0a4f28419497f9722a3daafe3b4186f6b6457e090600090a35050565b634e487b7160e01b600052604160045260246000fd5b600181811c9082168061012b57607f821691505b60208210810361014b57634e487b7160e01b600052602260045260246000fd5b50919050565b601f82111561019b57806000526020600020601f840160051c810160208510156101785750805b601f840160051c820191505b818110156101985760008155600101610184565b50505b505050565b81516001600160401b038111156101b9576101b9610101565b6101cd816101c78454610117565b84610151565b6020601f82116001811461020157600083156101e95750848201515b600019600385901b1c1916600184901b178455610198565b600084815260208120601f198516915b828110156102315787850151825560209485019460019092019101610211565b508482101561024f5786840151600019600387901b60f8161c191681555b50505050600190811b01905550565b611bf48061026d6000396000f3fe608060405234801561001057600080fd5b506004361061018e5760003560e01c806370a08231116100de578063b6c69e3811610097578063c92243d811610071578063c92243d814610379578063e985e9c51461038c578063f2fde38b1461039f578063f9ded043146103b257600080fd5b8063b6c69e3814610340578063b88d4fde14610353578063c87b56dd1461036657600080fd5b806370a08231146102d9578063715018a6146102ec5780638da5cb5b146102f457806395d89b4114610305578063998048d31461030d578063a22cb4651461032d57600080fd5b806323b872dd1161014b57806342966c681161012557806342966c681461027b5780634f558e791461028e5780634f6ccce7146102b35780636352211e146102c657600080fd5b806323b872dd146102425780632f745c591461025557806342842e0e1461026857600080fd5b806301ffc9a7146101935780630489b56f146101bb57806306fdde03146101db578063081812fc146101f0578063095ea7b31461021b57806318160ddd14610230575b600080fd5b6101a66101a1366004611734565b6103c5565b60405190151581526020015b60405180910390f35b6101ce6101c9366004611751565b6103f0565b6040516101b291906117a2565b6101e3610460565b6040516101b29190611800565b6102036101fe366004611751565b6104f2565b6040516001600160a01b0390911681526020016101b2565b61022e61022936600461182f565b61051b565b005b6008545b6040519081526020016101b2565b61022e610250366004611859565b61052a565b61023461026336600461182f565b610586565b61022e610276366004611859565b6105eb565b61022e610289366004611751565b61060b565b6101a661029c366004611751565b6000908152600b6020526040902060020154151590565b6102346102c1366004611751565b61087b565b6102036102d4366004611751565b6108d4565b6102346102e7366004611896565b6108df565b61022e610927565b600a546001600160a01b0316610203565b6101e361093b565b61032061031b366004611896565b61094a565b6040516101b291906118b1565b61022e61033b3660046118fa565b610a31565b6101a661034e366004611896565b610a3c565b61022e610361366004611943565b610a85565b6101e3610374366004611751565b610aa3565b6101a6610387366004611751565b610b18565b6101a661039a366004611a27565b610b31565b61022e6103ad366004611896565b610b5f565b61022e6103c0366004611a51565b610b9d565b60006001600160e01b0319821663780e9d6360e01b14806103ea57506103ea82610d19565b92915050565b6000818152600b602052604081206002015461044a5760405162461bcd60e51b8152602060048201526014602482015273151bdad95b88191bd95cc81b9bdd08195e1a5cdd60621b60448201526064015b60405180910390fd5b506000908152600b602052604090205460ff1690565b60606000805461046f90611aae565b80601f016020809104026020016040519081016040528092919081815260200182805461049b90611aae565b80156104e85780601f106104bd576101008083540402835291602001916104e8565b820191906000526020600020905b8154815290600101906020018083116104cb57829003601f168201915b5050505050905090565b60006104fd82610d69565b506000828152600460205260409020546001600160a01b03166103ea565b610526828233610da2565b5050565b60405162461bcd60e51b815260206004820152602b60248201527f5472616e7366657273206f66206a75616e6120736f756c626f756e6420746f6b60448201526a195b88191a5cd8589b195960aa1b6064820152608401610441565b6000610591836108df565b82106105c25760405163295f44f760e21b81526001600160a01b038416600482015260248101839052604401610441565b506001600160a01b03919091166000908152600660209081526040808320938352929052205490565b61060683838360405180602001604052806000815250610a85565b505050565b6000818152600b60205260409020600201546106605760405162461bcd60e51b8152602060048201526014602482015273151bdad95b88191bd95cc81b9bdd08195e1a5cdd60621b6044820152606401610441565b6000818152600b602052604081205460ff16908160038111156106855761068561176a565b036106e057600a546001600160a01b031633146106db5760405162461bcd60e51b815260206004820152601460248201527327b7363c9034b9b9bab2b91031b0b710313ab93760611b6044820152606401610441565b61083e565b60018160038111156106f4576106f461176a565b0361074f5733610703836108d4565b6001600160a01b0316146106db5760405162461bcd60e51b815260206004820152601360248201527227b7363c9037bbb732b91031b0b710313ab93760691b6044820152606401610441565b60028160038111156107635761076361176a565b036107dd57600a546001600160a01b0316331480610791575033610786836108d4565b6001600160a01b0316145b6106db5760405162461bcd60e51b815260206004820152601d60248201527f4f6e6c79206f776e6572206f72206973737565722063616e206275726e0000006044820152606401610441565b60038160038111156107f1576107f161176a565b0361083e5760405162461bcd60e51b815260206004820152601a60248201527f5468697320746f6b656e206973206e6f74206275726e61626c650000000000006044820152606401610441565b61084782610daf565b506000908152600b60205260408120805460ff19908116825560018201839055600282019290925560030180549091169055565b600061088660085490565b82106108af5760405163295f44f760e21b81526000600482015260248101839052604401610441565b600882815481106108c2576108c2611ae8565b90600052602060002001549050919050565b60006103ea82610d69565b60006001600160a01b03821661090b576040516322718ad960e21b815260006004820152602401610441565b506001600160a01b031660009081526003602052604090205490565b61092f610dea565b6109396000610e17565b565b60606001805461046f90611aae565b604080516080810182526000808252602082018190529181018290526060810182905290610977836108df565b9050806000036109ae5760408051608081019091528060038152600060208201819052604082018190526060909101529392505050565b60006109bb846000610586565b6000818152600b60205260409081902081516080810190925280549293509091829060ff1660038111156109f1576109f161176a565b6003811115610a0257610a0261176a565b8152600182015460208201526002820154604082015260039091015460ff161515606090910152949350505050565b610526338383610e69565b600080610a48836108df565b905080600003610a5b5750600092915050565b6000610a68846000610586565b6000908152600b602052604090206003015460ff16949350505050565b610a9084848461052a565b610a9d3385858585610f08565b50505050565b6060610aae82610d69565b506000610ac660408051602081019091526000815290565b90506000815111610ae65760405180602001604052806000815250610b11565b80610af084611033565b604051602001610b01929190611afe565b6040516020818303038152906040525b9392505050565b6000818152600b602052604081206002015415156103ea565b6001600160a01b03918216600090815260056020908152604080832093909416825291909152205460ff1690565b610b67610dea565b6001600160a01b038116610b9157604051631e4fbdf760e01b815260006004820152602401610441565b610b9a81610e17565b50565b610ba5610dea565b80610be95760405162461bcd60e51b815260206004820152601460248201527312d650c81b5d5cdd081899481d995c9a599a595960621b6044820152606401610441565b81610c295760405162461bcd60e51b815260206004820152601060248201526f092dcecc2d8d2c84096b28640d0c2e6d60831b6044820152606401610441565b610c3385856110c6565b6040518060800160405280846003811115610c5057610c5061176a565b81526020808201859052426040808401919091528415156060909301929092526000878152600b9091522081518154829060ff19166001836003811115610c9957610c9961176a565b02179055506020820151600182015560408083015160028301556060909201516003909101805460ff19169115159190911790555184906001600160a01b0387169033907f135ffb3383e06280e062ac5095bbf8faa98517161e596a2536bd98a9a8b64a8890610d0a9088906117a2565b60405180910390a45050505050565b60006001600160e01b031982166380ac58cd60e01b1480610d4a57506001600160e01b03198216635b5e139f60e01b145b806103ea57506301ffc9a760e01b6001600160e01b03198316146103ea565b6000818152600260205260408120546001600160a01b0316806103ea57604051637e27328960e01b815260048101849052602401610441565b610606838383600161112b565b6000610dbe6000836000611231565b90506001600160a01b03811661052657604051637e27328960e01b815260048101839052602401610441565b600a546001600160a01b031633146109395760405163118cdaa760e01b8152336004820152602401610441565b600a80546001600160a01b038381166001600160a01b0319831681179093556040519116919082907f8be0079c531659141344cd1fd0a4f28419497f9722a3daafe3b4186f6b6457e090600090a35050565b6001600160a01b038216610e9b57604051630b61174360e31b81526001600160a01b0383166004820152602401610441565b6001600160a01b03838116600081815260056020908152604080832094871680845294825291829020805460ff191686151590811790915591519182527f17307eab39ab6107e8899845ad3d59bd9653f200f220920489ca2b5937696c31910160405180910390a3505050565b6001600160a01b0383163b1561102c57604051630a85bd0160e11b81526001600160a01b0384169063150b7a0290610f4a908890889087908790600401611b2d565b6020604051808303816000875af1925050508015610f85575060408051601f3d908101601f19168201909252610f8291810190611b6a565b60015b610fee573d808015610fb3576040519150601f19603f3d011682016040523d82523d6000602084013e610fb8565b606091505b508051600003610fe657604051633250574960e11b81526001600160a01b0385166004820152602401610441565b805181602001fd5b6001600160e01b03198116630a85bd0160e11b1461102a57604051633250574960e11b81526001600160a01b0385166004820152602401610441565b505b5050505050565b6060600061104083611306565b600101905060008167ffffffffffffffff8111156110605761106061192d565b6040519080825280601f01601f19166020018201604052801561108a576020820181803683370190505b5090508181016020015b600019016f181899199a1a9b1b9c1cb0b131b232b360811b600a86061a8153600a850494508461109457509392505050565b6001600160a01b0382166110f057604051633250574960e11b815260006004820152602401610441565b60006110fe83836000611231565b90506001600160a01b03811615610606576040516339e3563760e11b815260006004820152602401610441565b808061113f57506001600160a01b03821615155b1561120157600061114f84610d69565b90506001600160a01b0383161580159061117b5750826001600160a01b0316816001600160a01b031614155b801561118e575061118c8184610b31565b155b156111b75760405163a9fbf51f60e01b81526001600160a01b0384166004820152602401610441565b81156111ff5783856001600160a01b0316826001600160a01b03167f8c5be1e5ebec7d5bd14f71427d1e84f3dd0314c0f7b2291e5b200ac8c7c3b92560405160405180910390a45b505b5050600090815260046020526040902080546001600160a01b0319166001600160a01b0392909216919091179055565b60008061123f8585856113de565b90506001600160a01b03811661129c5761129784600880546000838152600960205260408120829055600182018355919091527ff3f7a9fe364faab93b216da50a3214154f22a0a2b415b23a84c8169e8b636ee30155565b6112bf565b846001600160a01b0316816001600160a01b0316146112bf576112bf81856114d7565b6001600160a01b0385166112db576112d684611558565b6112fe565b846001600160a01b0316816001600160a01b0316146112fe576112fe8585611607565b949350505050565b60008072184f03e93ff9f4daa797ed6e38ed64bf6a1f0160401b83106113455772184f03e93ff9f4daa797ed6e38ed64bf6a1f0160401b830492506040015b6d04ee2d6d415b85acef81000000008310611371576d04ee2d6d415b85acef8100000000830492506020015b662386f26fc10000831061138f57662386f26fc10000830492506010015b6305f5e10083106113a7576305f5e100830492506008015b61271083106113bb57612710830492506004015b606483106113cd576064830492506002015b600a83106103ea5760010192915050565b6000828152600260205260408120546001600160a01b039081169083161561140b5761140b818486611657565b6001600160a01b038116156114495761142860008560008061112b565b6001600160a01b038116600090815260036020526040902080546000190190555b6001600160a01b03851615611478576001600160a01b0385166000908152600360205260409020805460010190555b60008481526002602052604080822080546001600160a01b0319166001600160a01b0389811691821790925591518793918516917fddf252ad1be2c89b69c2b068fc378daa952ba7f163c4a11628f55a4df523b3ef91a4949350505050565b60006114e2836108df565b6000838152600760209081526040808320546001600160a01b038816845260069092529091209192509081831461153957600083815260208281526040808320548584528184208190558352600790915290208290555b6000938452600760209081526040808620869055938552525081205550565b60085460009061156a90600190611b87565b6000838152600960205260408120546008805493945090928490811061159257611592611ae8565b9060005260206000200154905080600883815481106115b3576115b3611ae8565b60009182526020808320909101929092558281526009909152604080822084905585825281205560088054806115eb576115eb611ba8565b6001900381819060005260206000200160009055905550505050565b60006001611614846108df565b61161e9190611b87565b6001600160a01b039093166000908152600660209081526040808320868452825280832085905593825260079052919091209190915550565b6116628383836116bb565b610606576001600160a01b03831661169057604051637e27328960e01b815260048101829052602401610441565b60405163177e802f60e01b81526001600160a01b038316600482015260248101829052604401610441565b60006001600160a01b038316158015906112fe5750826001600160a01b0316846001600160a01b031614806116f557506116f58484610b31565b806112fe5750506000908152600460205260409020546001600160a01b03908116911614919050565b6001600160e01b031981168114610b9a57600080fd5b60006020828403121561174657600080fd5b8135610b118161171e565b60006020828403121561176357600080fd5b5035919050565b634e487b7160e01b600052602160045260246000fd5b6004811061179e57634e487b7160e01b600052602160045260246000fd5b9052565b602081016103ea8284611780565b60005b838110156117cb5781810151838201526020016117b3565b50506000910152565b600081518084526117ec8160208601602086016117b0565b601f01601f19169290920160200192915050565b602081526000610b1160208301846117d4565b80356001600160a01b038116811461182a57600080fd5b919050565b6000806040838503121561184257600080fd5b61184b83611813565b946020939093013593505050565b60008060006060848603121561186e57600080fd5b61187784611813565b925061188560208501611813565b929592945050506040919091013590565b6000602082840312156118a857600080fd5b610b1182611813565b60006080820190506118c4828451611780565b602083015160208301526040830151604083015260608301511515606083015292915050565b8035801515811461182a57600080fd5b6000806040838503121561190d57600080fd5b61191683611813565b9150611924602084016118ea565b90509250929050565b634e487b7160e01b600052604160045260246000fd5b6000806000806080858703121561195957600080fd5b61196285611813565b935061197060208601611813565b925060408501359150606085013567ffffffffffffffff81111561199357600080fd5b8501601f810187136119a457600080fd5b803567ffffffffffffffff8111156119be576119be61192d565b604051601f8201601f19908116603f0116810167ffffffffffffffff811182821017156119ed576119ed61192d565b604052818152828201602001891015611a0557600080fd5b8160208401602083013760006020838301015280935050505092959194509250565b60008060408385031215611a3a57600080fd5b611a4383611813565b915061192460208401611813565b600080600080600060a08688031215611a6957600080fd5b611a7286611813565b945060208601359350604086013560048110611a8d57600080fd5b925060608601359150611aa2608087016118ea565b90509295509295909350565b600181811c90821680611ac257607f821691505b602082108103611ae257634e487b7160e01b600052602260045260246000fd5b50919050565b634e487b7160e01b600052603260045260246000fd5b60008351611b108184602088016117b0565b835190830190611b248183602088016117b0565b01949350505050565b6001600160a01b0385811682528416602082015260408101839052608060608201819052600090611b60908301846117d4565b9695505050505050565b600060208284031215611b7c57600080fd5b8151610b118161171e565b818103818111156103ea57634e487b7160e01b600052601160045260246000fd5b634e487b7160e01b600052603160045260246000fdfea2646970667358221220be5235a71f33380754b609b3f97ffff61bd75e45835d2dffee6ef0a45073906d64736f6c634300081c0033","linkReferences":{}},"methodIdentifiers":{"approve(address,uint256)":"095ea7b3","balanceOf(address)":"70a08231","burn(uint256)":"42966c68","burnAuth(uint256)":"0489b56f","exists(uint256)":"4f558e79","getApproved(uint256)":"081812fc","getKYCDetailByAddress(address)":"998048d3","hasValidKYC(address)":"b6c69e38","isApprovedForAll(address,address)":"e985e9c5","isTokenValid(uint256)":"c92243d8","mintKYC(address,uint256,uint8,bytes32,bool)":"f9ded043","name()":"06fdde03","owner()":"8da5cb5b","ownerOf(uint256)":"6352211e","renounceOwnership()":"715018a6","safeTransferFrom(address,address,uint256)":"42842e0e","safeTransferFrom(address,address,uint256,bytes)":"b88d4fde","setApprovalForAll(address,bool)":"a22cb465","supportsInterface(bytes4)":"01ffc9a7","symbol()":"95d89b41","tokenByIndex(uint256)":"4f6ccce7","tokenOfOwnerByIndex(address,uint256)":"2f745c59","tokenURI(uint256)":"c87b56dd","totalSupply()":"18160ddd","transferFrom(address,address,uint256)":"23b872dd","transferOwnership(address)":"f2fde38b"},"id":40}